{
  "contractName": "Lifeboat",
  "abi": [
    {
      "inputs": [
        {
          "internalType": "contract ISwappaRouterV1",
          "name": "_swappa",
          "type": "address"
        },
        {
          "internalType": "contract IStdReference",
          "name": "_oracle",
          "type": "address"
        },
        {
          "internalType": "uint256",
          "name": "_limit",
          "type": "uint256"
        },
        {
          "internalType": "contract IERC20",
          "name": "_source",
          "type": "address"
        },
        {
          "internalType": "contract IERC20",
          "name": "_destination",
          "type": "address"
        },
        {
          "internalType": "address payable",
          "name": "_gasDepot",
          "type": "address"
        },
        {
          "internalType": "string",
          "name": "_oracleBase",
          "type": "string"
        },
        {
          "internalType": "string",
          "name": "_oracleQuote",
          "type": "string"
        }
      ],
      "stateMutability": "nonpayable",
      "type": "constructor"
    },
    {
      "anonymous": false,
      "inputs": [
        {
          "indexed": true,
          "internalType": "address",
          "name": "user",
          "type": "address"
        },
        {
          "indexed": false,
          "internalType": "uint256",
          "name": "inputAmount",
          "type": "uint256"
        },
        {
          "indexed": false,
          "internalType": "uint256",
          "name": "outputAmount",
          "type": "uint256"
        }
      ],
      "name": "Saved",
      "type": "event"
    },
    {
      "anonymous": false,
      "inputs": [
        {
          "indexed": true,
          "internalType": "address",
          "name": "user",
          "type": "address"
        },
        {
          "indexed": false,
          "internalType": "uint256",
          "name": "remaining",
          "type": "uint256"
        },
        {
          "indexed": false,
          "internalType": "uint256",
          "name": "depegThreshold",
          "type": "uint256"
        },
        {
          "indexed": false,
          "internalType": "uint256",
          "name": "minimumPrice",
          "type": "uint256"
        }
      ],
      "name": "StateChanged",
      "type": "event"
    },
    {
      "inputs": [],
      "name": "destination",
      "outputs": [
        {
          "internalType": "contract IERC20",
          "name": "",
          "type": "address"
        }
      ],
      "stateMutability": "view",
      "type": "function",
      "constant": true
    },
    {
      "inputs": [],
      "name": "gasDepot",
      "outputs": [
        {
          "internalType": "address payable",
          "name": "",
          "type": "address"
        }
      ],
      "stateMutability": "view",
      "type": "function",
      "constant": true
    },
    {
      "inputs": [],
      "name": "limit",
      "outputs": [
        {
          "internalType": "uint256",
          "name": "",
          "type": "uint256"
        }
      ],
      "stateMutability": "view",
      "type": "function",
      "constant": true
    },
    {
      "inputs": [],
      "name": "oracle",
      "outputs": [
        {
          "internalType": "contract IStdReference",
          "name": "",
          "type": "address"
        }
      ],
      "stateMutability": "view",
      "type": "function",
      "constant": true
    },
    {
      "inputs": [],
      "name": "oracleBase",
      "outputs": [
        {
          "internalType": "string",
          "name": "",
          "type": "string"
        }
      ],
      "stateMutability": "view",
      "type": "function",
      "constant": true
    },
    {
      "inputs": [],
      "name": "oracleQuote",
      "outputs": [
        {
          "internalType": "string",
          "name": "",
          "type": "string"
        }
      ],
      "stateMutability": "view",
      "type": "function",
      "constant": true
    },
    {
      "inputs": [],
      "name": "source",
      "outputs": [
        {
          "internalType": "contract IERC20",
          "name": "",
          "type": "address"
        }
      ],
      "stateMutability": "view",
      "type": "function",
      "constant": true
    },
    {
      "inputs": [
        {
          "internalType": "address",
          "name": "",
          "type": "address"
        }
      ],
      "name": "states",
      "outputs": [
        {
          "internalType": "uint256",
          "name": "remaining",
          "type": "uint256"
        },
        {
          "internalType": "uint256",
          "name": "depegThreshold",
          "type": "uint256"
        },
        {
          "internalType": "uint256",
          "name": "minimumPrice",
          "type": "uint256"
        }
      ],
      "stateMutability": "view",
      "type": "function",
      "constant": true
    },
    {
      "inputs": [],
      "name": "swappa",
      "outputs": [
        {
          "internalType": "contract ISwappaRouterV1",
          "name": "",
          "type": "address"
        }
      ],
      "stateMutability": "view",
      "type": "function",
      "constant": true
    },
    {
      "inputs": [],
      "name": "getCurrentPeg",
      "outputs": [
        {
          "internalType": "uint256",
          "name": "",
          "type": "uint256"
        }
      ],
      "stateMutability": "view",
      "type": "function",
      "constant": true
    },
    {
      "inputs": [],
      "name": "unenroll",
      "outputs": [],
      "stateMutability": "nonpayable",
      "type": "function"
    },
    {
      "inputs": [
        {
          "internalType": "uint256",
          "name": "amount",
          "type": "uint256"
        },
        {
          "internalType": "uint256",
          "name": "depegThreshold",
          "type": "uint256"
        },
        {
          "internalType": "uint256",
          "name": "minimumPrice",
          "type": "uint256"
        }
      ],
      "name": "enroll",
      "outputs": [
        {
          "components": [
            {
              "internalType": "uint256",
              "name": "remaining",
              "type": "uint256"
            },
            {
              "internalType": "uint256",
              "name": "depegThreshold",
              "type": "uint256"
            },
            {
              "internalType": "uint256",
              "name": "minimumPrice",
              "type": "uint256"
            }
          ],
          "internalType": "struct Lifeboat.State",
          "name": "state",
          "type": "tuple"
        }
      ],
      "stateMutability": "payable",
      "type": "function",
      "payable": true
    },
    {
      "inputs": [
        {
          "internalType": "address",
          "name": "user",
          "type": "address"
        }
      ],
      "name": "effectiveRemaining",
      "outputs": [
        {
          "internalType": "uint256",
          "name": "",
          "type": "uint256"
        }
      ],
      "stateMutability": "view",
      "type": "function",
      "constant": true
    },
    {
      "inputs": [
        {
          "internalType": "address",
          "name": "user",
          "type": "address"
        },
        {
          "components": [
            {
              "internalType": "address[]",
              "name": "path",
              "type": "address[]"
            },
            {
              "internalType": "address[]",
              "name": "pairs",
              "type": "address[]"
            },
            {
              "internalType": "bytes[]",
              "name": "extras",
              "type": "bytes[]"
            },
            {
              "internalType": "uint256",
              "name": "deadline",
              "type": "uint256"
            }
          ],
          "internalType": "struct Lifeboat.SwappaArgs",
          "name": "args",
          "type": "tuple"
        }
      ],
      "name": "save",
      "outputs": [
        {
          "internalType": "uint256",
          "name": "outputAmount",
          "type": "uint256"
        }
      ],
      "stateMutability": "nonpayable",
      "type": "function"
    },
    {
      "inputs": [
        {
          "internalType": "contract IERC20",
          "name": "token",
          "type": "address"
        }
      ],
      "name": "rescueERC20",
      "outputs": [
        {
          "internalType": "bool",
          "name": "",
          "type": "bool"
        }
      ],
      "stateMutability": "nonpayable",
      "type": "function"
    }
  ],
  "bytecode": "0x6101406040523480156200001257600080fd5b506040516200215d3803806200215d8339810160408190526200003591620004cc565b6001600160a01b0380891660805287811660a05260c087905285811660e052848116610100528316610120528151620000769060009060208501906200032f565b5080516200008c9060019060208401906200032f565b50600062000099620002af565b11620000ec5760405162461bcd60e51b815260206004820152601d60248201527f696e76616c6964206f7261636c65207265666572656e6365206461746100000060448201526064015b60405180910390fd5b600060e0516001600160a01b03166318160ddd6040518163ffffffff1660e01b8152600401602060405180830381865afa1580156200012f573d6000803e3d6000fd5b505050506040513d601f19601f82011682018060405250810190620001559190620005ac565b11620001a45760405162461bcd60e51b815260206004820152601460248201527f696e76616c696420736f7572636520746f6b656e0000000000000000000000006044820152606401620000e3565b6000610100516001600160a01b03166318160ddd6040518163ffffffff1660e01b8152600401602060405180830381865afa158015620001e8573d6000803e3d6000fd5b505050506040513d601f19601f820116820180604052508101906200020e9190620005ac565b116200025d5760405162461bcd60e51b815260206004820152601960248201527f696e76616c69642064657374696e6174696f6e20746f6b656e000000000000006044820152606401620000e3565b600060c05111620002a15760405162461bcd60e51b815260206004820152600d60248201526c1a5b9d985b1a59081b1a5b5a5d609a1b6044820152606401620000e3565b50505050505050506200073c565b60a05160405163195556f360e21b81526000916001600160a01b0316906365555bcc90620002e5908490600190600401620006ab565b606060405180830381865afa15801562000303573d6000803e3d6000fd5b505050506040513d601f19601f82011682018060405250810190620003299190620006dd565b51919050565b8280546200033d90620005c6565b90600052602060002090601f016020900481019282620003615760008555620003ac565b82601f106200037c57805160ff1916838001178555620003ac565b82800160010185558215620003ac579182015b82811115620003ac5782518255916020019190600101906200038f565b50620003ba929150620003be565b5090565b5b80821115620003ba5760008155600101620003bf565b6001600160a01b0381168114620003eb57600080fd5b50565b634e487b7160e01b600052604160045260246000fd5b604051601f8201601f191681016001600160401b03811182821017156200042f576200042f620003ee565b604052919050565b600082601f8301126200044957600080fd5b81516001600160401b03811115620004655762000465620003ee565b60206200047b601f8301601f1916820162000404565b82815285828487010111156200049057600080fd5b60005b83811015620004b057858101830151828201840152820162000493565b83811115620004c25760008385840101525b5095945050505050565b600080600080600080600080610100898b031215620004ea57600080fd5b8851620004f781620003d5565b60208a01519098506200050a81620003d5565b60408a015160608b015191985096506200052481620003d5565b60808a01519095506200053781620003d5565b60a08a01519094506200054a81620003d5565b60c08a01519093506001600160401b03808211156200056857600080fd5b620005768c838d0162000437565b935060e08b01519150808211156200058d57600080fd5b506200059c8b828c0162000437565b9150509295985092959890939650565b600060208284031215620005bf57600080fd5b5051919050565b600181811c90821680620005db57607f821691505b60208210811415620005fd57634e487b7160e01b600052602260045260246000fd5b50919050565b8054600090600181811c90808316806200061e57607f831692505b60208084108214156200064157634e487b7160e01b600052602260045260246000fd5b838852602088018280156200065f576001811462000671576200069e565b60ff198716825282820197506200069e565b60008981526020902060005b8781101562000698578154848201529086019084016200067d565b83019850505b5050505050505092915050565b604081526000620006c0604083018562000603565b8281036020840152620006d4818562000603565b95945050505050565b600060608284031215620006f057600080fd5b604051606081016001600160401b0381118282101715620007155762000715620003ee565b80604052508251815260208301516020820152604083015160408201528091505092915050565b60805160a05160c05160e0516101005161012051611968620007f5600039600081816102f401528181610563015261100f01526000818161035c01528181610798015261094001526000818161028c0152818161072d015281816108b801528181610a2e01528181610b4801528181610dfa0152610eae015260008181610328015281816103e601526104130152600081816102c0015261061601526000818161015a01528181610b190152610c0b01526119686000f3fe6080604052600436106100e85760003560e01c80634562aee31161008a57806389d4b3e91161005957806389d4b3e9146102e2578063a4d66daf14610316578063b269681d1461034a578063ccec37161461037e57600080fd5b80634562aee3146102435780635bcba7d31461026557806367e828bf1461027a5780637dc0d1d0146102ae57600080fd5b806316bea400116100c657806316bea400146101c957806317c18c23146101ec57806320f3b4181461020c5780632bd27b401461022357600080fd5b806302a22337146100ed578063056bc3b41461014857806307a415f014610194575b600080fd5b3480156100f957600080fd5b50610128610108366004611327565b600260208190526000918252604090912080546001820154919092015483565b604080519384526020840192909252908201526060015b60405180910390f35b34801561015457600080fd5b5061017c7f000000000000000000000000000000000000000000000000000000000000000081565b6040516001600160a01b03909116815260200161013f565b6101a76101a2366004611344565b6103ae565b604080518251815260208084015190820152918101519082015260600161013f565b3480156101d557600080fd5b506101de6105e3565b60405190815260200161013f565b3480156101f857600080fd5b506101de610207366004611370565b610695565b34801561021857600080fd5b50610221610d7c565b005b34801561022f57600080fd5b506101de61023e366004611327565b610da4565b34801561024f57600080fd5b50610258610f32565b60405161013f91906113c7565b34801561027157600080fd5b50610258610fc0565b34801561028657600080fd5b5061017c7f000000000000000000000000000000000000000000000000000000000000000081565b3480156102ba57600080fd5b5061017c7f000000000000000000000000000000000000000000000000000000000000000081565b3480156102ee57600080fd5b5061017c7f000000000000000000000000000000000000000000000000000000000000000081565b34801561032257600080fd5b506101de7f000000000000000000000000000000000000000000000000000000000000000081565b34801561035657600080fd5b5061017c7f000000000000000000000000000000000000000000000000000000000000000081565b34801561038a57600080fd5b5061039e610399366004611327565b610fcd565b604051901515815260200161013f565b6103d260405180606001604052806000815260200160008152602001600081525090565b836103e4576103df610d7c565b6105dc565b7f000000000000000000000000000000000000000000000000000000000000000084116104115783610433565b7f00000000000000000000000000000000000000000000000000000000000000005b81526020810183905260408101829052346104955760405162461bcd60e51b815260206004820152601a60248201527f6d697373696e6720676173206465706f7420646f6e6174696f6e00000000000060448201526064015b60405180910390fd5b8260001080156104af57506104ac6012600a611516565b83105b6104fb5760405162461bcd60e51b815260206004820152601760248201527f696e76616c6964206465706567207468726573686f6c64000000000000000000604482015260640161048c565b81600010801561050a57508282105b6105565760405162461bcd60e51b815260206004820152601560248201527f696e76616c6964206d696e696d756d2070726963650000000000000000000000604482015260640161048c565b6040516001600160a01b037f000000000000000000000000000000000000000000000000000000000000000016904780156108fc02916000818181858888f193505050501580156105ab573d6000803e3d6000fd5b503360008181526002602081815260409283902085518155908501516001820155918401519101556105dc90611102565b9392505050565b6040517f65555bcc0000000000000000000000000000000000000000000000000000000081526000906001600160a01b037f000000000000000000000000000000000000000000000000000000000000000016906365555bcc9061064e90849060019060040161161b565b606060405180830381865afa15801561066b573d6000803e3d6000fd5b505050506040513d601f19601f8201168201806040525081019061068f9190611640565b51919050565b6001600160a01b03821660009081526002602081815260408084208151606081018352815481526001820154938101849052930154908301526106d66105e3565b106107235760405162461bcd60e51b815260206004820152601060248201527f63757272656e7420706567207361666500000000000000000000000000000000604482015260640161048c565b6001600160a01b037f00000000000000000000000000000000000000000000000000000000000000001661075784806116aa565b6000818110610768576107686116fb565b905060200201602081019061077d9190611327565b6001600160a01b031614801561080857506001600160a01b037f0000000000000000000000000000000000000000000000000000000000000000166107c284806116aa565b60016107ce87806116aa565b6107d9929150611711565b8181106107e8576107e86116fb565b90506020020160208101906107fd9190611327565b6001600160a01b0316145b6108545760405162461bcd60e51b815260206004820152601160248201527f696e76616c696420737761702070617468000000000000000000000000000000604482015260640161048c565b600061085f85610da4565b9050600081116108b15760405162461bcd60e51b815260206004820152601460248201527f696e76616c696420696e70757420616d6f756e74000000000000000000000000604482015260640161048c565b60006109e67f00000000000000000000000000000000000000000000000000000000000000006001600160a01b031663313ce5676040518163ffffffff1660e01b8152600401602060405180830381865afa158015610914573d6000803e3d6000fd5b505050506040513d601f19601f820116820180604052508101906109389190611728565b60ff166109e07f00000000000000000000000000000000000000000000000000000000000000006001600160a01b031663313ce5676040518163ffffffff1660e01b8152600401602060405180830381865afa15801561099c573d6000803e3d6000fd5b505050506040513d601f19601f820116820180604052508101906109c09190611728565b60ff166109da87604001518761116690919063ffffffff16565b90611188565b90611223565b6040517f23b872dd0000000000000000000000000000000000000000000000000000000081526001600160a01b038881166004830152306024830152604482018590529192507f0000000000000000000000000000000000000000000000000000000000000000909116906323b872dd906064016020604051808303816000875af1158015610a79573d6000803e3d6000fd5b505050506040513d601f19601f82011682018060405250810190610a9d919061174b565b610ae95760405162461bcd60e51b815260206004820152601860248201527f6661696c656420746f207472616e7366657220696e7075740000000000000000604482015260640161048c565b6040517f095ea7b30000000000000000000000000000000000000000000000000000000081526001600160a01b037f000000000000000000000000000000000000000000000000000000000000000081166004830152602482018490527f0000000000000000000000000000000000000000000000000000000000000000169063095ea7b3906044016020604051808303816000875af1158015610b91573d6000803e3d6000fd5b505050506040513d601f19601f82011682018060405250810190610bb5919061174b565b610c015760405162461bcd60e51b815260206004820152601860248201527f6661696c656420746f20617070726f7665207377617070610000000000000000604482015260640161048c565b6001600160a01b037f00000000000000000000000000000000000000000000000000000000000000001663adf6fa02610c3a87806116aa565b610c4760208a018a6116aa565b610c5460408c018c6116aa565b89898f8f606001356040518b63ffffffff1660e01b8152600401610c819a999897969594939291906117e1565b6020604051808303816000875af1158015610ca0573d6000803e3d6000fd5b505050506040513d601f19601f82011682018060405250810190610cc491906118d8565b60408051848152602081018390529195506001600160a01b038816917ffe7f0d9312e396d50f323cae11d7ebeada5139e12ce702baf7c3d3897b04bf33910160405180910390a28251600090610d1a9084611265565b905080610d4c576001600160a01b03871660009081526002602081905260408220828155600181018390550155610d68565b6001600160a01b03871660009081526002602052604090208190555b610d7187611102565b505050505b92915050565b3360008181526002602081905260408220828155600181018390550155610da290611102565b565b6001600160a01b038181166000818152600260205260408082205490517fdd62ed3e00000000000000000000000000000000000000000000000000000000815260048101939093523060248401529092909183917f0000000000000000000000000000000000000000000000000000000000000000169063dd62ed3e90604401602060405180830381865afa158015610e41573d6000803e3d6000fd5b505050506040513d601f19601f82011682018060405250810190610e6591906118d8565b905081811015610e73578091505b6040517f70a082310000000000000000000000000000000000000000000000000000000081526001600160a01b0385811660048301526000917f0000000000000000000000000000000000000000000000000000000000000000909116906370a0823190602401602060405180830381865afa158015610ef7573d6000803e3d6000fd5b505050506040513d601f19601f82011682018060405250810190610f1b91906118d8565b905082811015610f29578092505b50909392505050565b60008054610f3f90611522565b80601f0160208091040260200160405190810160405280929190818152602001828054610f6b90611522565b8015610fb85780601f10610f8d57610100808354040283529160200191610fb8565b820191906000526020600020905b815481529060010190602001808311610f9b57829003601f168201915b505050505081565b60018054610f3f90611522565b6040517f70a082310000000000000000000000000000000000000000000000000000000081523060048201526000906001600160a01b0383169063a9059cbb907f00000000000000000000000000000000000000000000000000000000000000009083906370a0823190602401602060405180830381865afa158015611057573d6000803e3d6000fd5b505050506040513d601f19601f8201168201806040525081019061107b91906118d8565b6040517fffffffff0000000000000000000000000000000000000000000000000000000060e085901b1681526001600160a01b03909216600483015260248201526044016020604051808303816000875af11580156110de573d6000803e3d6000fd5b505050506040513d601f19601f82011682018060405250810190610d76919061174b565b6001600160a01b0381166000818152600260208181526040928390208054600182015491909301548451938452918301528183015290517f84a937380bd3b76f5ca22e202e9bb3867d04b2059fbd6c63ac5fb84ee25dd5289181900360600190a250565b60006111746012600a611516565b61117e8484611188565b6105dc91906118f1565b60008261119757506000610d76565b60006111a38385611913565b9050826111b085836118f1565b146105dc5760405162461bcd60e51b815260206004820152602160248201527f536166654d6174683a206d756c7469706c69636174696f6e206f766572666c6f60448201527f7700000000000000000000000000000000000000000000000000000000000000606482015260840161048c565b60006105dc83836040518060400160405280601a81526020017f536166654d6174683a206469766973696f6e206279207a65726f0000000000008152506112a7565b60006105dc83836040518060400160405280601e81526020017f536166654d6174683a207375627472616374696f6e206f766572666c6f7700008152506112de565b600081836112c85760405162461bcd60e51b815260040161048c91906113c7565b5060006112d584866118f1565b95945050505050565b600081848411156113025760405162461bcd60e51b815260040161048c91906113c7565b5060006112d58486611711565b6001600160a01b038116811461132457600080fd5b50565b60006020828403121561133957600080fd5b81356105dc8161130f565b60008060006060848603121561135957600080fd5b505081359360208301359350604090920135919050565b6000806040838503121561138357600080fd5b823561138e8161130f565b9150602083013567ffffffffffffffff8111156113aa57600080fd5b8301608081860312156113bc57600080fd5b809150509250929050565b600060208083528351808285015260005b818110156113f4578581018301518582016040015282016113d8565b81811115611406576000604083870101525b50601f01601f1916929092016040019392505050565b634e487b7160e01b600052601160045260246000fd5b600181815b8085111561146d5781600019048211156114535761145361141c565b8085161561146057918102915b93841c9390800290611437565b509250929050565b60008261148457506001610d76565b8161149157506000610d76565b81600181146114a757600281146114b1576114cd565b6001915050610d76565b60ff8411156114c2576114c261141c565b50506001821b610d76565b5060208310610133831016604e8410600b84101617156114f0575081810a610d76565b6114fa8383611432565b806000190482111561150e5761150e61141c565b029392505050565b60006105dc8383611475565b600181811c9082168061153657607f821691505b6020821081141561155757634e487b7160e01b600052602260045260246000fd5b50919050565b8054600090600181811c908083168061157757607f831692505b602080841082141561159957634e487b7160e01b600052602260045260246000fd5b838852602088018280156115b457600181146115e35761160e565b7fffffffffffffffffffffffffffffffffffffffffffffffffffffffffffffff0087168252828201975061160e565b60008981526020902060005b87811015611608578154848201529086019084016115ef565b83019850505b5050505050505092915050565b60408152600061162e604083018561155d565b82810360208401526112d5818561155d565b60006060828403121561165257600080fd5b6040516060810181811067ffffffffffffffff8211171561168357634e487b7160e01b600052604160045260246000fd5b80604052508251815260208301516020820152604083015160408201528091505092915050565b6000808335601e198436030181126116c157600080fd5b83018035915067ffffffffffffffff8211156116dc57600080fd5b6020019150600581901b36038213156116f457600080fd5b9250929050565b634e487b7160e01b600052603260045260246000fd5b6000828210156117235761172361141c565b500390565b60006020828403121561173a57600080fd5b815160ff811681146105dc57600080fd5b60006020828403121561175d57600080fd5b815180151581146105dc57600080fd5b8183526000602080850194508260005b858110156117ab5781356117908161130f565b6001600160a01b03168752958201959082019060010161177d565b509495945050505050565b818352818160208501375060006020828401015260006020601f19601f840116840101905092915050565b60e0815260006117f560e083018c8e61176d565b8281036020840152611808818b8d61176d565b8381036040850152888152905060208082019060058a901b8301018a60005b8b81101561189a57601f198584030184528135601e198e360301811261184c57600080fd5b8d01803567ffffffffffffffff81111561186557600080fd5b8036038f131561187457600080fd5b6118828582602085016117b6565b60209687019690955093909301925050600101611827565b50508093505050508560608301528460808301526118c360a08301856001600160a01b03169052565b8260c08301529b9a5050505050505050505050565b6000602082840312156118ea57600080fd5b5051919050565b60008261190e57634e487b7160e01b600052601260045260246000fd5b500490565b600081600019048311821515161561192d5761192d61141c565b50029056fea2646970667358221220ca47ed5608f472c81ab1ff47bc9ef24b20ca483a01d7d5868040eb901ebbdd2464736f6c634300080b0033",
  "immutableReferences": {
    "208": [
      {
        "length": 32,
        "start": 346
      },
      {
        "length": 32,
        "start": 2841
      },
      {
        "length": 32,
        "start": 3083
      }
    ],
    "211": [
      {
        "length": 32,
        "start": 704
      },
      {
        "length": 32,
        "start": 1558
      }
    ],
    "213": [
      {
        "length": 32,
        "start": 808
      },
      {
        "length": 32,
        "start": 998
      },
      {
        "length": 32,
        "start": 1043
      }
    ],
    "216": [
      {
        "length": 32,
        "start": 652
      },
      {
        "length": 32,
        "start": 1837
      },
      {
        "length": 32,
        "start": 2232
      },
      {
        "length": 32,
        "start": 2606
      },
      {
        "length": 32,
        "start": 2888
      },
      {
        "length": 32,
        "start": 3578
      },
      {
        "length": 32,
        "start": 3758
      }
    ],
    "219": [
      {
        "length": 32,
        "start": 860
      },
      {
        "length": 32,
        "start": 1944
      },
      {
        "length": 32,
        "start": 2368
      }
    ],
    "221": [
      {
        "length": 32,
        "start": 756
      },
      {
        "length": 32,
        "start": 1379
      },
      {
        "length": 32,
        "start": 4111
      }
    ]
  },
  "source": "// SPDX-License-Identifier: MIT\npragma solidity >=0.4.22 <0.9.0;\n\nimport \"./IERC20.sol\";\nimport \"./IStdReference.sol\";\nimport \"./ISwappaRouterV1.sol\";\nimport \"./SafeDecimalMath.sol\";\nimport \"./SafeMath.sol\";\n\ncontract Lifeboat {\n    using SafeMath for uint256;\n    using SafeDecimalMath for uint256;\n\n    // Swappa router to use for completing the swap\n    ISwappaRouterV1 public immutable swappa;\n    // Oracle for reference price\n    IStdReference public immutable oracle;\n    // Limit for max swap amount per user\n    uint256 public immutable limit;\n    // Source token for the swap\n    IERC20 public immutable source;\n    // Destination token for the swap\n    IERC20 public immutable destination;\n    // Gas depot to pay for rescue transactions\n    address payable public immutable gasDepot;\n    // Oracle base token\n    string public oracleBase;\n    // Oracle quote token\n    string public oracleQuote;\n\n    // Swapped balance for each user\n    mapping(address => State) public states;\n\n    struct State {\n        // Amount of remaining tokens to swap\n        uint256 remaining;\n        // Depeg threshold to trigger the swap as a decimal\n        // e.g. 0.95 CUSD/USD\n        uint256 depegThreshold;\n        // Minimum price to accept for the swap as a decimal\n        // e.g. 0.90 USDC/CUSD (source / destination)\n        uint256 minimumPrice;\n    }\n\n    event StateChanged(\n        address indexed user,\n        uint256 remaining,\n        uint256 depegThreshold,\n        uint256 minimumPrice\n    );\n\n    event Saved(\n        address indexed user,\n        uint256 inputAmount,\n        uint256 outputAmount\n    );\n\n    struct SwappaArgs {\n        address[] path;\n        address[] pairs;\n        bytes[] extras;\n        uint256 deadline;\n    }\n\n    constructor(\n        ISwappaRouterV1 _swappa,\n        IStdReference _oracle,\n        uint256 _limit,\n        IERC20 _source,\n        IERC20 _destination,\n        address payable _gasDepot,\n        string memory _oracleBase,\n        string memory _oracleQuote\n    ) {\n        swappa = _swappa;\n        oracle = _oracle;\n        limit = _limit;\n        source = _source;\n        destination = _destination;\n        gasDepot = _gasDepot;\n        oracleBase = _oracleBase;\n        oracleQuote = _oracleQuote;\n\n        // sanity check that the oracle reference data is correct\n        require(getCurrentPeg() > 0, \"invalid oracle reference data\");\n        // sanity check the source and destination tokens\n        require(source.totalSupply() > 0, \"invalid source token\");\n        require(destination.totalSupply() > 0, \"invalid destination token\");\n        // sanity check the limit\n        require(limit > 0, \"invalid limit\");\n    }\n\n    function getCurrentPeg() public view returns (uint256) {\n        return oracle.getReferenceData(oracleBase, oracleQuote).rate;\n    }\n\n    function unenroll() public {\n        delete states[msg.sender];\n        logEvent(msg.sender);\n    }\n\n    function enroll(\n        uint256 amount,\n        uint256 depegThreshold,\n        uint256 minimumPrice\n    ) public payable returns (State memory state) {\n        if (amount == 0) {\n            // enrolling with amount 0 is the same as unenrolling\n            unenroll();\n            return state;\n        }\n\n        // do not allow enrollment greater than contract limit\n        state.remaining = amount > limit ? limit : amount;\n        state.depegThreshold = depegThreshold;\n        state.minimumPrice = minimumPrice;\n\n        require(msg.value > 0, \"missing gas depot donation\");\n        require(\n            0 < depegThreshold && depegThreshold < SafeDecimalMath.UNIT,\n            \"invalid depeg threshold\"\n        );\n        require(\n            0 < minimumPrice && minimumPrice < depegThreshold,\n            \"invalid minimum price\"\n        );\n\n        gasDepot.transfer(address(this).balance);\n        states[msg.sender] = state;\n        logEvent(msg.sender);\n        return state;\n    }\n\n    function effectiveRemaining(address user) public view returns (uint256) {\n        uint256 remaining = states[user].remaining;\n        uint256 allowance = source.allowance(user, address(this));\n        if (allowance < remaining) {\n            // allowance is not enough\n            remaining = allowance;\n        }\n        uint256 balance = source.balanceOf(user);\n        if (balance < remaining) {\n            // balance is not enough\n            remaining = balance;\n        }\n        return remaining;\n    }\n\n    function save(address user, SwappaArgs calldata args)\n        public\n        returns (uint256 outputAmount)\n    {\n        State memory state = states[user];\n        require(getCurrentPeg() < state.depegThreshold, \"current peg safe\");\n        require(\n            args.path[0] == address(source) &&\n                args.path[args.path.length - 1] == address(destination),\n            \"invalid swap path\"\n        );\n\n        uint256 inputAmount = effectiveRemaining(user);\n        require(inputAmount > 0, \"invalid input amount\");\n\n        // use the minimal price to rescale to the destination token\n        uint256 minOutputAmount = inputAmount\n            .multiplyDecimal(state.minimumPrice)\n            .mul(destination.decimals())\n            .div(source.decimals());\n\n        // pull the necessary input amount from the user\n        require(\n            source.transferFrom(user, address(this), inputAmount),\n            \"failed to transfer input\"\n        );\n        require(\n            source.approve(address(swappa), inputAmount),\n            \"failed to approve swappa\"\n        );\n        outputAmount = swappa.swapExactInputForOutputWithPrecheck(\n            args.path,\n            args.pairs,\n            args.extras,\n            inputAmount,\n            minOutputAmount,\n            user,\n            args.deadline\n        );\n        emit Saved(user, inputAmount, outputAmount);\n\n        // decrement the remaining and emit\n        uint256 remaining = state.remaining.sub(inputAmount);\n        if (remaining == 0) {\n            delete states[user];\n        } else {\n            states[user].remaining = remaining;\n        }\n        logEvent(user);\n        return outputAmount;\n    }\n\n    function rescueERC20(IERC20 token) external returns (bool) {\n        return token.transfer(gasDepot, token.balanceOf(address(this)));\n    }\n\n    function logEvent(address user) private {\n        emit StateChanged(\n            user,\n            states[user].remaining,\n            states[user].depegThreshold,\n            states[user].minimumPrice\n        );\n    }\n}\n",
  "sourcePath": "/Users/diwu/Projects/lifeboat-contracts/contracts/Lifeboat.sol",
  "compiler": {
    "name": "solc",
    "version": "0.8.11+commit.d7f03943.Emscripten.clang"
  },
  "schemaVersion": "3.4.4",
  "updatedAt": "2022-05-30T05:56:20.807Z",
  "networkType": "ethereum",
  "devdoc": {
    "kind": "dev",
    "methods": {},
    "version": 1
  },
  "userdoc": {
    "kind": "user",
    "methods": {},
    "version": 1
  }
}