{
  "contractName": "Lifeboat",
  "abi": [
    {
      "inputs": [
        {
          "internalType": "contract ISwappaRouterV1",
          "name": "_swappa",
          "type": "address"
        },
        {
          "internalType": "contract IStdReference",
          "name": "_oracle",
          "type": "address"
        },
        {
          "internalType": "uint256",
          "name": "_limit",
          "type": "uint256"
        },
        {
          "internalType": "contract IERC20",
          "name": "_source",
          "type": "address"
        },
        {
          "internalType": "contract IERC20",
          "name": "_destination",
          "type": "address"
        },
        {
          "internalType": "address payable",
          "name": "_gasDepot",
          "type": "address"
        },
        {
          "internalType": "string",
          "name": "_oracleBase",
          "type": "string"
        },
        {
          "internalType": "string",
          "name": "_oracleQuote",
          "type": "string"
        }
      ],
      "stateMutability": "nonpayable",
      "type": "constructor"
    },
    {
      "anonymous": false,
      "inputs": [
        {
          "indexed": true,
          "internalType": "address",
          "name": "user",
          "type": "address"
        },
        {
          "components": [
            {
              "internalType": "uint256",
              "name": "remaining",
              "type": "uint256"
            },
            {
              "internalType": "uint256",
              "name": "depegThreshold",
              "type": "uint256"
            },
            {
              "internalType": "uint256",
              "name": "minimumPrice",
              "type": "uint256"
            }
          ],
          "indexed": false,
          "internalType": "struct Lifeboat.State",
          "name": "state",
          "type": "tuple"
        }
      ],
      "name": "StateChanged",
      "type": "event"
    },
    {
      "inputs": [],
      "name": "destination",
      "outputs": [
        {
          "internalType": "contract IERC20",
          "name": "",
          "type": "address"
        }
      ],
      "stateMutability": "view",
      "type": "function"
    },
    {
      "inputs": [],
      "name": "gasDepot",
      "outputs": [
        {
          "internalType": "address payable",
          "name": "",
          "type": "address"
        }
      ],
      "stateMutability": "view",
      "type": "function"
    },
    {
      "inputs": [],
      "name": "limit",
      "outputs": [
        {
          "internalType": "uint256",
          "name": "",
          "type": "uint256"
        }
      ],
      "stateMutability": "view",
      "type": "function"
    },
    {
      "inputs": [],
      "name": "oracle",
      "outputs": [
        {
          "internalType": "contract IStdReference",
          "name": "",
          "type": "address"
        }
      ],
      "stateMutability": "view",
      "type": "function"
    },
    {
      "inputs": [],
      "name": "oracleBase",
      "outputs": [
        {
          "internalType": "string",
          "name": "",
          "type": "string"
        }
      ],
      "stateMutability": "view",
      "type": "function"
    },
    {
      "inputs": [],
      "name": "oracleQuote",
      "outputs": [
        {
          "internalType": "string",
          "name": "",
          "type": "string"
        }
      ],
      "stateMutability": "view",
      "type": "function"
    },
    {
      "inputs": [],
      "name": "source",
      "outputs": [
        {
          "internalType": "contract IERC20",
          "name": "",
          "type": "address"
        }
      ],
      "stateMutability": "view",
      "type": "function"
    },
    {
      "inputs": [
        {
          "internalType": "address",
          "name": "",
          "type": "address"
        }
      ],
      "name": "states",
      "outputs": [
        {
          "internalType": "uint256",
          "name": "remaining",
          "type": "uint256"
        },
        {
          "internalType": "uint256",
          "name": "depegThreshold",
          "type": "uint256"
        },
        {
          "internalType": "uint256",
          "name": "minimumPrice",
          "type": "uint256"
        }
      ],
      "stateMutability": "view",
      "type": "function"
    },
    {
      "inputs": [],
      "name": "swappa",
      "outputs": [
        {
          "internalType": "contract ISwappaRouterV1",
          "name": "",
          "type": "address"
        }
      ],
      "stateMutability": "view",
      "type": "function"
    },
    {
      "inputs": [],
      "name": "getCurrentPeg",
      "outputs": [
        {
          "internalType": "uint256",
          "name": "",
          "type": "uint256"
        }
      ],
      "stateMutability": "view",
      "type": "function"
    },
    {
      "inputs": [],
      "name": "unenroll",
      "outputs": [],
      "stateMutability": "nonpayable",
      "type": "function"
    },
    {
      "inputs": [
        {
          "internalType": "uint256",
          "name": "amount",
          "type": "uint256"
        },
        {
          "internalType": "uint256",
          "name": "depegThreshold",
          "type": "uint256"
        },
        {
          "internalType": "uint256",
          "name": "minimumPrice",
          "type": "uint256"
        }
      ],
      "name": "enroll",
      "outputs": [
        {
          "components": [
            {
              "internalType": "uint256",
              "name": "remaining",
              "type": "uint256"
            },
            {
              "internalType": "uint256",
              "name": "depegThreshold",
              "type": "uint256"
            },
            {
              "internalType": "uint256",
              "name": "minimumPrice",
              "type": "uint256"
            }
          ],
          "internalType": "struct Lifeboat.State",
          "name": "state",
          "type": "tuple"
        }
      ],
      "stateMutability": "payable",
      "type": "function"
    },
    {
      "inputs": [
        {
          "internalType": "address",
          "name": "user",
          "type": "address"
        }
      ],
      "name": "effectiveRemaining",
      "outputs": [
        {
          "internalType": "uint256",
          "name": "",
          "type": "uint256"
        }
      ],
      "stateMutability": "view",
      "type": "function"
    },
    {
      "inputs": [
        {
          "internalType": "address",
          "name": "user",
          "type": "address"
        },
        {
          "components": [
            {
              "internalType": "address[]",
              "name": "path",
              "type": "address[]"
            },
            {
              "internalType": "address[]",
              "name": "pairs",
              "type": "address[]"
            },
            {
              "internalType": "bytes[]",
              "name": "extras",
              "type": "bytes[]"
            },
            {
              "internalType": "uint256",
              "name": "deadline",
              "type": "uint256"
            }
          ],
          "internalType": "struct Lifeboat.SwapArgs",
          "name": "args",
          "type": "tuple"
        }
      ],
      "name": "swap",
      "outputs": [
        {
          "internalType": "uint256",
          "name": "outputAmount",
          "type": "uint256"
        }
      ],
      "stateMutability": "nonpayable",
      "type": "function"
    },
    {
      "inputs": [
        {
          "internalType": "contract IERC20",
          "name": "token",
          "type": "address"
        }
      ],
      "name": "rescueERC20",
      "outputs": [
        {
          "internalType": "bool",
          "name": "",
          "type": "bool"
        }
      ],
      "stateMutability": "nonpayable",
      "type": "function"
    }
  ],
  "bytecode": "0x6101406040523480156200001257600080fd5b50604051620021a5380380620021a58339810160408190526200003591620004cc565b6001600160a01b0380891660805287811660a05260c087905285811660e052848116610100528316610120528151620000769060009060208501906200032f565b5080516200008c9060019060208401906200032f565b50600062000099620002af565b11620000ec5760405162461bcd60e51b815260206004820152601d60248201527f696e76616c6964206f7261636c65207265666572656e6365206461746100000060448201526064015b60405180910390fd5b600060e0516001600160a01b03166318160ddd6040518163ffffffff1660e01b8152600401602060405180830381865afa1580156200012f573d6000803e3d6000fd5b505050506040513d601f19601f82011682018060405250810190620001559190620005ac565b11620001a45760405162461bcd60e51b815260206004820152601460248201527f696e76616c696420736f7572636520746f6b656e0000000000000000000000006044820152606401620000e3565b6000610100516001600160a01b03166318160ddd6040518163ffffffff1660e01b8152600401602060405180830381865afa158015620001e8573d6000803e3d6000fd5b505050506040513d601f19601f820116820180604052508101906200020e9190620005ac565b116200025d5760405162461bcd60e51b815260206004820152601960248201527f696e76616c69642064657374696e6174696f6e20746f6b656e000000000000006044820152606401620000e3565b600060c05111620002a15760405162461bcd60e51b815260206004820152600d60248201526c1a5b9d985b1a59081b1a5b5a5d609a1b6044820152606401620000e3565b50505050505050506200073c565b60a05160405163195556f360e21b81526000916001600160a01b0316906365555bcc90620002e5908490600190600401620006ab565b606060405180830381865afa15801562000303573d6000803e3d6000fd5b505050506040513d601f19601f82011682018060405250810190620003299190620006dd565b51919050565b8280546200033d90620005c6565b90600052602060002090601f016020900481019282620003615760008555620003ac565b82601f106200037c57805160ff1916838001178555620003ac565b82800160010185558215620003ac579182015b82811115620003ac5782518255916020019190600101906200038f565b50620003ba929150620003be565b5090565b5b80821115620003ba5760008155600101620003bf565b6001600160a01b0381168114620003eb57600080fd5b50565b634e487b7160e01b600052604160045260246000fd5b604051601f8201601f191681016001600160401b03811182821017156200042f576200042f620003ee565b604052919050565b600082601f8301126200044957600080fd5b81516001600160401b03811115620004655762000465620003ee565b60206200047b601f8301601f1916820162000404565b82815285828487010111156200049057600080fd5b60005b83811015620004b057858101830151828201840152820162000493565b83811115620004c25760008385840101525b5095945050505050565b600080600080600080600080610100898b031215620004ea57600080fd5b8851620004f781620003d5565b60208a01519098506200050a81620003d5565b60408a015160608b015191985096506200052481620003d5565b60808a01519095506200053781620003d5565b60a08a01519094506200054a81620003d5565b60c08a01519093506001600160401b03808211156200056857600080fd5b620005768c838d0162000437565b935060e08b01519150808211156200058d57600080fd5b506200059c8b828c0162000437565b9150509295985092959890939650565b600060208284031215620005bf57600080fd5b5051919050565b600181811c90821680620005db57607f821691505b60208210811415620005fd57634e487b7160e01b600052602260045260246000fd5b50919050565b8054600090600181811c90808316806200061e57607f831692505b60208084108214156200064157634e487b7160e01b600052602260045260246000fd5b838852602088018280156200065f576001811462000671576200069e565b60ff198716825282820197506200069e565b60008981526020902060005b8781101562000698578154848201529086019084016200067d565b83019850505b5050505050505092915050565b604081526000620006c0604083018562000603565b8281036020840152620006d4818562000603565b95945050505050565b600060608284031215620006f057600080fd5b604051606081016001600160401b0381118282101715620007155762000715620003ee565b80604052508251815260208301516020820152604083015160408201528091505092915050565b60805160a05160c05160e05161010051610120516119b0620007f5600039600081816102f40152818161057001526110bb01526000818161035c01528181610a790152610c2101526000818161026c015281816107a30152818161085701528181610a0e01528181610b9901528181610d0f0152610e29015260008181610328015281816103e601526104130152600081816102c0015261066d01526000818161015a01528181610dfa0152610eec01526119b06000f3fe6080604052600436106100e85760003560e01c80635bcba7d31161008a57806389d4b3e91161005957806389d4b3e9146102e2578063a4d66daf14610316578063b269681d1461034a578063ccec37161461037e57600080fd5b80635bcba7d31461024557806367e828bf1461025a5780637a05b7f31461028e5780637dc0d1d0146102ae57600080fd5b806316bea400116100c657806316bea400146101c957806320f3b418146101ec5780632bd27b40146102035780634562aee31461022357600080fd5b806302a22337146100ed578063056bc3b41461014857806307a415f014610194575b600080fd5b3480156100f957600080fd5b5061012861010836600461136f565b600260208190526000918252604090912080546001820154919092015483565b604080519384526020840192909252908201526060015b60405180910390f35b34801561015457600080fd5b5061017c7f000000000000000000000000000000000000000000000000000000000000000081565b6040516001600160a01b03909116815260200161013f565b6101a76101a236600461138c565b6103ae565b604080518251815260208084015190820152918101519082015260600161013f565b3480156101d557600080fd5b506101de61063a565b60405190815260200161013f565b3480156101f857600080fd5b506102016106ec565b005b34801561020f57600080fd5b506101de61021e36600461136f565b61074d565b34801561022f57600080fd5b506102386108db565b60405161013f91906113b8565b34801561025157600080fd5b50610238610969565b34801561026657600080fd5b5061017c7f000000000000000000000000000000000000000000000000000000000000000081565b34801561029a57600080fd5b506101de6102a936600461140d565b610976565b3480156102ba57600080fd5b5061017c7f000000000000000000000000000000000000000000000000000000000000000081565b3480156102ee57600080fd5b5061017c7f000000000000000000000000000000000000000000000000000000000000000081565b34801561032257600080fd5b506101de7f000000000000000000000000000000000000000000000000000000000000000081565b34801561035657600080fd5b5061017c7f000000000000000000000000000000000000000000000000000000000000000081565b34801561038a57600080fd5b5061039e61039936600461136f565b611079565b604051901515815260200161013f565b6103d260405180606001604052806000815260200160008152602001600081525090565b836103e4576103df6106ec565b610633565b7f000000000000000000000000000000000000000000000000000000000000000084116104115783610433565b7f00000000000000000000000000000000000000000000000000000000000000005b81526020810183905260408101829052346104955760405162461bcd60e51b815260206004820152601a60248201527f6d697373696e6720676173206465706f7420646f6e6174696f6e00000000000060448201526064015b60405180910390fd5b6104a16012600a61155e565b83111580156104b05750600083115b6104fc5760405162461bcd60e51b815260206004820152601760248201527f696e76616c6964206465706567207468726573686f6c64000000000000000000604482015260640161048c565b6105086012600a61155e565b82111580156105175750600082115b6105635760405162461bcd60e51b815260206004820152601560248201527f696e76616c6964206d696e696d756d2070726963650000000000000000000000604482015260640161048c565b6040516001600160a01b037f000000000000000000000000000000000000000000000000000000000000000016904780156108fc02916000818181858888f193505050501580156105b8573d6000803e3d6000fd5b50336000818152600260208181526040928390208551815590850151600182015582850151910155517fc8a7ba43356f20e6e5c92337e803c1859364d33a59c781540205bbec291315ce9061062a90849081518152602080830151908201526040918201519181019190915260600190565b60405180910390a25b9392505050565b6040517f65555bcc0000000000000000000000000000000000000000000000000000000081526000906001600160a01b037f000000000000000000000000000000000000000000000000000000000000000016906365555bcc906106a5908490600190600401611663565b606060405180830381865afa1580156106c2573d6000803e3d6000fd5b505050506040513d601f19601f820116820180604052508101906106e69190611688565b51919050565b33600081815260026020818152604080842084815560018101859055909201839055815183815290810183905280820192909252517fc8a7ba43356f20e6e5c92337e803c1859364d33a59c781540205bbec291315ce9181900360600190a2565b6001600160a01b038181166000818152600260205260408082205490517fdd62ed3e00000000000000000000000000000000000000000000000000000000815260048101939093523060248401529092909183917f0000000000000000000000000000000000000000000000000000000000000000169063dd62ed3e90604401602060405180830381865afa1580156107ea573d6000803e3d6000fd5b505050506040513d601f19601f8201168201806040525081019061080e91906116f2565b90508181101561081c578091505b6040517f70a082310000000000000000000000000000000000000000000000000000000081526001600160a01b0385811660048301526000917f0000000000000000000000000000000000000000000000000000000000000000909116906370a0823190602401602060405180830381865afa1580156108a0573d6000803e3d6000fd5b505050506040513d601f19601f820116820180604052508101906108c491906116f2565b9050828110156108d2578092505b50909392505050565b600080546108e89061156a565b80601f01602080910402602001604051908101604052809291908181526020018280546109149061156a565b80156109615780601f1061093657610100808354040283529160200191610961565b820191906000526020600020905b81548152906001019060200180831161094457829003601f168201915b505050505081565b600180546108e89061156a565b6001600160a01b03821660009081526002602081815260408084208151606081018352815481526001820154938101849052930154908301526109b761063a565b10610a045760405162461bcd60e51b815260206004820152601060248201527f63757272656e7420706567207361666500000000000000000000000000000000604482015260640161048c565b6001600160a01b037f000000000000000000000000000000000000000000000000000000000000000016610a38848061170b565b6000818110610a4957610a4961175c565b9050602002016020810190610a5e919061136f565b6001600160a01b0316148015610ae957506001600160a01b037f000000000000000000000000000000000000000000000000000000000000000016610aa3848061170b565b6001610aaf878061170b565b610aba929150611772565b818110610ac957610ac961175c565b9050602002016020810190610ade919061136f565b6001600160a01b0316145b610b355760405162461bcd60e51b815260206004820152601160248201527f696e76616c696420737761702070617468000000000000000000000000000000604482015260640161048c565b6000610b408561074d565b905060008111610b925760405162461bcd60e51b815260206004820152601460248201527f696e76616c696420696e70757420616d6f756e74000000000000000000000000604482015260640161048c565b6000610cc77f00000000000000000000000000000000000000000000000000000000000000006001600160a01b031663313ce5676040518163ffffffff1660e01b8152600401602060405180830381865afa158015610bf5573d6000803e3d6000fd5b505050506040513d601f19601f82011682018060405250810190610c199190611789565b60ff16610cc17f00000000000000000000000000000000000000000000000000000000000000006001600160a01b031663313ce5676040518163ffffffff1660e01b8152600401602060405180830381865afa158015610c7d573d6000803e3d6000fd5b505050506040513d601f19601f82011682018060405250810190610ca19190611789565b60ff16610cbb8760400151876111ae90919063ffffffff16565b906111d0565b9061126b565b6040517f23b872dd0000000000000000000000000000000000000000000000000000000081526001600160a01b038881166004830152306024830152604482018590529192507f0000000000000000000000000000000000000000000000000000000000000000909116906323b872dd906064016020604051808303816000875af1158015610d5a573d6000803e3d6000fd5b505050506040513d601f19601f82011682018060405250810190610d7e91906117ac565b610dca5760405162461bcd60e51b815260206004820152601860248201527f6661696c656420746f207472616e7366657220696e7075740000000000000000604482015260640161048c565b6040517f095ea7b30000000000000000000000000000000000000000000000000000000081526001600160a01b037f000000000000000000000000000000000000000000000000000000000000000081166004830152602482018490527f0000000000000000000000000000000000000000000000000000000000000000169063095ea7b3906044016020604051808303816000875af1158015610e72573d6000803e3d6000fd5b505050506040513d601f19601f82011682018060405250810190610e9691906117ac565b610ee25760405162461bcd60e51b815260206004820152601860248201527f6661696c656420746f20617070726f7665207377617070610000000000000000604482015260640161048c565b6001600160a01b037f00000000000000000000000000000000000000000000000000000000000000001663adf6fa02610f1b878061170b565b610f2860208a018a61170b565b610f3560408c018c61170b565b89898f8f606001356040518b63ffffffff1660e01b8152600401610f629a99989796959493929190611842565b6020604051808303816000875af1158015610f81573d6000803e3d6000fd5b505050506040513d601f19601f82011682018060405250810190610fa591906116f2565b8351909450600090610fb790846112ad565b905080610fe9576001600160a01b03871660009081526002602081905260408220828155600181018390550155611005565b6001600160a01b03871660009081526002602052604090208190555b6001600160a01b0387166000818152600260205260409081902090517fc8a7ba43356f20e6e5c92337e803c1859364d33a59c781540205bbec291315ce91611066918154815260018201546020820152600290910154604082015260600190565b60405180910390a2505050505b92915050565b6040517f70a082310000000000000000000000000000000000000000000000000000000081523060048201526000906001600160a01b0383169063a9059cbb907f00000000000000000000000000000000000000000000000000000000000000009083906370a0823190602401602060405180830381865afa158015611103573d6000803e3d6000fd5b505050506040513d601f19601f8201168201806040525081019061112791906116f2565b6040517fffffffff0000000000000000000000000000000000000000000000000000000060e085901b1681526001600160a01b03909216600483015260248201526044016020604051808303816000875af115801561118a573d6000803e3d6000fd5b505050506040513d601f19601f8201168201806040525081019061107391906117ac565b60006111bc6012600a61155e565b6111c684846111d0565b6106339190611939565b6000826111df57506000611073565b60006111eb838561195b565b9050826111f88583611939565b146106335760405162461bcd60e51b815260206004820152602160248201527f536166654d6174683a206d756c7469706c69636174696f6e206f766572666c6f60448201527f7700000000000000000000000000000000000000000000000000000000000000606482015260840161048c565b600061063383836040518060400160405280601a81526020017f536166654d6174683a206469766973696f6e206279207a65726f0000000000008152506112ef565b600061063383836040518060400160405280601e81526020017f536166654d6174683a207375627472616374696f6e206f766572666c6f770000815250611326565b600081836113105760405162461bcd60e51b815260040161048c91906113b8565b50600061131d8486611939565b95945050505050565b6000818484111561134a5760405162461bcd60e51b815260040161048c91906113b8565b50600061131d8486611772565b6001600160a01b038116811461136c57600080fd5b50565b60006020828403121561138157600080fd5b813561063381611357565b6000806000606084860312156113a157600080fd5b505081359360208301359350604090920135919050565b600060208083528351808285015260005b818110156113e5578581018301518582016040015282016113c9565b818111156113f7576000604083870101525b50601f01601f1916929092016040019392505050565b6000806040838503121561142057600080fd5b823561142b81611357565b9150602083013567ffffffffffffffff81111561144757600080fd5b83016080818603121561145957600080fd5b809150509250929050565b634e487b7160e01b600052601160045260246000fd5b600181815b808511156114b557816000190482111561149b5761149b611464565b808516156114a857918102915b93841c939080029061147f565b509250929050565b6000826114cc57506001611073565b816114d957506000611073565b81600181146114ef57600281146114f957611515565b6001915050611073565b60ff84111561150a5761150a611464565b50506001821b611073565b5060208310610133831016604e8410600b8410161715611538575081810a611073565b611542838361147a565b806000190482111561155657611556611464565b029392505050565b600061063383836114bd565b600181811c9082168061157e57607f821691505b6020821081141561159f57634e487b7160e01b600052602260045260246000fd5b50919050565b8054600090600181811c90808316806115bf57607f831692505b60208084108214156115e157634e487b7160e01b600052602260045260246000fd5b838852602088018280156115fc576001811461162b57611656565b7fffffffffffffffffffffffffffffffffffffffffffffffffffffffffffffff00871682528282019750611656565b60008981526020902060005b8781101561165057815484820152908601908401611637565b83019850505b5050505050505092915050565b60408152600061167660408301856115a5565b828103602084015261131d81856115a5565b60006060828403121561169a57600080fd5b6040516060810181811067ffffffffffffffff821117156116cb57634e487b7160e01b600052604160045260246000fd5b80604052508251815260208301516020820152604083015160408201528091505092915050565b60006020828403121561170457600080fd5b5051919050565b6000808335601e1984360301811261172257600080fd5b83018035915067ffffffffffffffff82111561173d57600080fd5b6020019150600581901b360382131561175557600080fd5b9250929050565b634e487b7160e01b600052603260045260246000fd5b60008282101561178457611784611464565b500390565b60006020828403121561179b57600080fd5b815160ff8116811461063357600080fd5b6000602082840312156117be57600080fd5b8151801515811461063357600080fd5b8183526000602080850194508260005b8581101561180c5781356117f181611357565b6001600160a01b0316875295820195908201906001016117de565b509495945050505050565b818352818160208501375060006020828401015260006020601f19601f840116840101905092915050565b60e08152600061185660e083018c8e6117ce565b8281036020840152611869818b8d6117ce565b8381036040850152888152905060208082019060058a901b8301018a60005b8b8110156118fb57601f198584030184528135601e198e36030181126118ad57600080fd5b8d01803567ffffffffffffffff8111156118c657600080fd5b8036038f13156118d557600080fd5b6118e3858260208501611817565b60209687019690955093909301925050600101611888565b505080935050505085606083015284608083015261192460a08301856001600160a01b03169052565b8260c08301529b9a5050505050505050505050565b60008261195657634e487b7160e01b600052601260045260246000fd5b500490565b600081600019048311821515161561197557611975611464565b50029056fea264697066735822122040780db6917e8af1d4d2ac74837f8b0dcb99f3443d8439cb5d80becac96f1a5764736f6c634300080b0033",
  "immutableReferences": {
    "208": [
      {
        "length": 32,
        "start": 346
      },
      {
        "length": 32,
        "start": 3578
      },
      {
        "length": 32,
        "start": 3820
      }
    ],
    "211": [
      {
        "length": 32,
        "start": 704
      },
      {
        "length": 32,
        "start": 1645
      }
    ],
    "213": [
      {
        "length": 32,
        "start": 808
      },
      {
        "length": 32,
        "start": 998
      },
      {
        "length": 32,
        "start": 1043
      }
    ],
    "216": [
      {
        "length": 32,
        "start": 620
      },
      {
        "length": 32,
        "start": 1955
      },
      {
        "length": 32,
        "start": 2135
      },
      {
        "length": 32,
        "start": 2574
      },
      {
        "length": 32,
        "start": 2969
      },
      {
        "length": 32,
        "start": 3343
      },
      {
        "length": 32,
        "start": 3625
      }
    ],
    "219": [
      {
        "length": 32,
        "start": 860
      },
      {
        "length": 32,
        "start": 2681
      },
      {
        "length": 32,
        "start": 3105
      }
    ],
    "221": [
      {
        "length": 32,
        "start": 756
      },
      {
        "length": 32,
        "start": 1392
      },
      {
        "length": 32,
        "start": 4283
      }
    ]
  },
  "source": "// SPDX-License-Identifier: MIT\npragma solidity >=0.4.22 <0.9.0;\n\nimport \"./IStdReference.sol\";\nimport \"./ISwappaRouterV1.sol\";\nimport \"./IERC20.sol\";\nimport \"./SafeDecimalMath.sol\";\nimport \"./SafeMath.sol\";\n\ncontract Lifeboat {\n    using SafeMath for uint256;\n    using SafeDecimalMath for uint256;\n\n    // Swappa router to use for completing the swap\n    ISwappaRouterV1 public immutable swappa;\n    // Oracle for reference price\n    IStdReference public immutable oracle;\n    // Limit for max swap amount per user\n    uint256 public immutable limit;\n    // Source token for the swap\n    IERC20 public immutable source;\n    // Destination token for the swap\n    IERC20 public immutable destination;\n    // Gas depot to pay for rescue transactions\n    address payable public immutable gasDepot;\n    // Oracle base token\n    string public oracleBase;\n    // Oracle quote token\n    string public oracleQuote;\n\n    // Swapped balance for each user\n    mapping(address => State) public states;\n\n    struct State {\n        // Amount of remaining tokens to swap\n        uint256 remaining;\n        // Depeg threshold to trigger the swap as a decimal\n        // e.g. 0.95 CUSD/USD\n        uint256 depegThreshold;\n        // Minimum price to accept for the swap as a decimal\n        // e.g. 0.90 USDC/CUSD (source / destination)\n        uint256 minimumPrice;\n    }\n\n    struct SwapArgs {\n        address[] path;\n        address[] pairs;\n        bytes[] extras;\n        uint256 deadline;\n    }\n\n    event StateChanged(address indexed user, State state);\n\n    constructor(\n        ISwappaRouterV1 _swappa,\n        IStdReference _oracle,\n        uint256 _limit,\n        IERC20 _source,\n        IERC20 _destination,\n        address payable _gasDepot,\n        string memory _oracleBase,\n        string memory _oracleQuote\n    ) {\n        swappa = _swappa;\n        oracle = _oracle;\n        limit = _limit;\n        source = _source;\n        destination = _destination;\n        gasDepot = _gasDepot;\n        oracleBase = _oracleBase;\n        oracleQuote = _oracleQuote;\n\n        // sanity check that the oracle reference data is correct\n        require(getCurrentPeg() > 0, \"invalid oracle reference data\");\n        // sanity check the source and destination tokens\n        require(source.totalSupply() > 0, \"invalid source token\");\n        require(destination.totalSupply() > 0, \"invalid destination token\");\n        // sanity check the limit\n        require(limit > 0, \"invalid limit\");\n    }\n\n    function getCurrentPeg() public view returns (uint256) {\n        return oracle.getReferenceData(oracleBase, oracleQuote).rate;\n    }\n\n    function unenroll() public {\n        delete states[msg.sender];\n        emit StateChanged(msg.sender, states[msg.sender]);\n    }\n\n    function enroll(\n        uint256 amount,\n        uint256 depegThreshold,\n        uint256 minimumPrice\n    ) public payable returns (State memory state) {\n        if (amount == 0) {\n            // enrolling with amount 0 is the same as unenrolling\n            unenroll();\n            return state;\n        }\n\n        // do not allow enrollment greater than contract limit\n        state.remaining = amount > limit ? limit : amount;\n        state.depegThreshold = depegThreshold;\n        state.minimumPrice = minimumPrice;\n\n        require(msg.value > 0, \"missing gas depot donation\");\n        require(\n            depegThreshold <= SafeDecimalMath.UNIT && depegThreshold > 0,\n            \"invalid depeg threshold\"\n        );\n        require(\n            minimumPrice <= SafeDecimalMath.UNIT && minimumPrice > 0,\n            \"invalid minimum price\"\n        );\n\n        gasDepot.transfer(address(this).balance);\n        states[msg.sender] = state;\n        emit StateChanged(msg.sender, state);\n        return state;\n    }\n\n    function effectiveRemaining(address user) public view returns (uint256) {\n        uint256 remaining = states[user].remaining;\n        uint256 allowance = source.allowance(user, address(this));\n        if (allowance < remaining) {\n            // allowance is not enough\n            remaining = allowance;\n        }\n        uint256 balance = source.balanceOf(user);\n        if (balance < remaining) {\n            // balance is not enough\n            remaining = balance;\n        }\n        return remaining;\n    }\n\n    function swap(\n        address user,\n        SwapArgs calldata args\n    ) public returns (uint256 outputAmount) {\n        State memory state = states[user];\n        require(getCurrentPeg() < state.depegThreshold, \"current peg safe\");\n        require(\n            args.path[0] == address(source) &&\n                args.path[args.path.length - 1] == address(destination),\n            \"invalid swap path\"\n        );\n\n        uint256 inputAmount = effectiveRemaining(user);\n        require(inputAmount > 0, \"invalid input amount\");\n\n        // use the minimal price to rescale to the destination token\n        uint256 minOutputAmount = inputAmount\n            .multiplyDecimal(state.minimumPrice)\n            .mul(destination.decimals())\n            .div(source.decimals());\n\n        // pull the necessary input amount from the user\n        require(\n            source.transferFrom(user, address(this), inputAmount),\n            \"failed to transfer input\"\n        );\n        require(\n            source.approve(address(swappa), inputAmount),\n            \"failed to approve swappa\"\n        );\n        outputAmount = swappa.swapExactInputForOutputWithPrecheck(\n            args.path,\n            args.pairs,\n            args.extras,\n            inputAmount,\n            minOutputAmount,\n            user,\n            args.deadline\n        );\n\n        // decrement the remaining and emit\n        uint256 remaining = state.remaining.sub(inputAmount);\n        if (remaining == 0) {\n            delete states[user];\n        } else {\n            states[user].remaining = remaining;\n        }\n        emit StateChanged(user, states[user]);\n        return outputAmount;\n    }\n\n    function rescueERC20(IERC20 token) external returns (bool) {\n        return token.transfer(gasDepot, token.balanceOf(address(this)));\n    }\n}\n",
  "sourcePath": "/Users/diwu/Projects/lifeboat-contracts/contracts/Lifeboat.sol",
  "compiler": {
    "name": "solc",
    "version": "0.8.11+commit.d7f03943.Emscripten.clang"
  },
  "schemaVersion": "3.4.4",
  "updatedAt": "2022-05-30T05:06:45.321Z",
  "devdoc": {
    "kind": "dev",
    "methods": {},
    "version": 1
  },
  "userdoc": {
    "kind": "user",
    "methods": {},
    "version": 1
  }
}